:020000040000FA
:040000008A01002A47
:08000800F100030E8301A000CA
:100010000A08A1008A0183170408A2000B1D1428F6
:100020002530810024140B110C1D1E288E018F0118
:100030000C11871C1D2887101E2887140C1E2128D0
:100040000C128C1E34287A08C03E84001A088313D0
:1000500080007A0A1F39FA0000083A3C0319FA01B5
:1000600000080D3C0319B1170C1E472879087802C7
:1000700003194428790A1F39F900A03E840083132C
:10008000000883179900472883160C128312210851
:100090008A0022088400200E8300F10E710E0900F0
:1000A00050185A28D01A5A28301B5A28B01C080059
:1000B0004E1B752830190800321C6228501F8628F4
:1000C00030170800301B6628301879284F08063989
:1000D000031D6C28501F8628CF1C862801307F28DE
:1000E000B11501307F2801307F28CE1F86280030CF
:1000F0007F28501B7D284F1C862800307F28D01B6E
:10010000922830190800301507279228D01B922812
:100110003019080030158A150A16A030CB000D20C2
:100120008A110A120230CB008A150A16AB208A11F6
:100130000A12BB003010320801390319B010080050
:100140000030B90005163210BA010800CD1D0800B4
:1001500001304D1A0030CB008A150A16AB208A11E7
:100160000A12C400BC00031D321508003018BF2855
:10017000301BBF28B01C08003B08063C0318502069
:1001800008004E1EC528033007270730CB008A150C
:100190000A16AB208A110A12C10008000830AA0012
:1001A0002030CC00A03084008A150A16BA208A11AB
:1001B0000A12E0202030CB07CC00AA0BD22808007E
:1001C0001430E5201330E5200800AE00241CE6289A
:0A01D00024106400AE0BE6280800BE
:10040000831600309F0007309F0078308F00013046
:100410008100C03094002E309900203098002430A4
:100420008C00EF3085003A30860030309500D430B3
:10043000870004308C00031788018901031383129D
:100440002130940090309800103085008601061508
:10045000183087006400003090000A309700FF30A9
:1004600095009600203084008001840A841F342A7D
:1004700083170A30A500A600A700A800A401FF303A
:10048000CA00C701E0308B0008300F2726300F2745
:100490008316FF3085008312051A612AAA012A08F3
:1004A000EF3C031C5E2A2A08CB002A088A150A168C
:1004B0000025C4208A110A12AA0A4F2A06300F27E3
:1004C00064008316EF308500831207300F27053054
:1004D0000F2703018A150A16E020BE268A110A1288
:1004E00001305018BB00D01ABB000730CB008A1572
:1004F0000A16AB208A110A12C100D01B852A8A1560
:100500000A16113000208A110A12A41AA412241EFD
:100510008F2A2412A80B8F2A0A30A800A416A41D23
:10052000972AA411A70B972A0A30A7002416241D86
:100530009F2A2411A60B9F2A0A30A600A415A41CEA
:10054000A72AA410A50BA72A0A30A5002415241C4D
:10055000AC2A2410A4146400A41CFB2A861CB52A0F
:100560004E1DD42ACD18D42ABF2ACD1CC12A4E1D17
:10057000BF2A32080539031DC12A3318C12A0719B9
:10058000D42A3318E92AB808031DD02A0530CF1B16
:100590006430B208031DCE2A4D19FA30B800EA2A99
:1005A000B80BEA2A3314EA2A331CE92AB808031DD7
:1005B000E02A0530CF1B32304E1B5030B800EA2AFB
:1005C000B80BEA2A3310F3080319EA2A0230F300C1
:1005D000EA2AB801511FF92A861AF42AB11AFB2A0D
:1005E000B1160130E200FB2AD11BFB2AB112E20155
:1005F000FB2AB112E201241D362B851E282BB01BCD
:10060000362BB0173113071D3117CE1D0A2B0516D7
:100610001430BD003230F300720884000310840CE3
:10062000203084070F3005058A150A16A9268A117D
:100630000A1200383110031931147218232B80016B
:100640008000800E242B8004F20A1F30F205362B26
:10065000B01F362BB013311C362B73080319332B04
:10066000143C031C362B3115F201F3018619542B6F
:10067000B2124E1F3F2BB418B4173418341734106D
:10068000B4103019B01030118A150A1620303D21EF
:100690008A110A12E110E113341F542B34134E1F38
:1006A000542B013080380F27D50803195A2BD50B4E
:1006B0005A2B6110E108031DFD2B7D087C020319F4
:1006C000FD2B7D0A0739FD00E03E840083130008FE
:1006D00080018317AD00AD1BDF2B2D1BD12BAD1A75
:1006E000C62B0F30AD0503308A002D088207872BFB
:1006F000882B972B992B9B2BA42BAF2BB32BBE2B8B
:10070000872B872B872B872B872B872B872BFD2BE3
:10071000DC01DD01A0308A150A1645218A110A1272
:100720005A0830390319C02BE1144030C02BC030B7
:10073000C02B2030FD2BDC01DD01A0308A150A160C
:1007400045218A110A12FD2BDC01DD0190308A154A
:100750000A1645218A110A125A08DB00FD2BE11402
:10076000E113CA30C02B1F30DC00B030DD00A630F2
:100770008A150A1645218A110A12FD2B8030C02BDA
:100780008A150A163D218A110A12FD2B2D081F39E0
:10079000D500AD00AD0DAD0D2D0D5507D50761147C
:1007A000FD2B0930E000B2162D083F398A150A16D4
:1007B0002E21502181208A110A123414FB2B2D1F67
:1007C000EE2B8930E0002D083F398A150A162E21BC
:1007D00050218A110A12B414B413FB2B4930E000E3
:1007E0002D083F398A150A162E2150218A110A1226
:0C07F000E1174E1BB216E114FD2B002C8B
:1008000004308A0039088207092C862CCE2CE42C6F
:10081000F52C331CFB2C4D182E2C34191F2CD01EFC
:10082000FB2C501FFB2C0430B900341CFB2C301D5A
:10083000FB2C01300F27B21230173011FB2C033084
:10084000B9000512341C272CD5013410B212341112
:1008500001300F275708C0380F27FB2CCD1E3B2C2B
:10086000BF080319FB2C0330CB008A150A16AB20F6
:100870008A110A12BF000130B900501C432C320803
:10088000043903193014B0143211BC014E1F321454
:10089000FF30CA00BD0803190512341C6B2C301D33
:1008A000532CCF1D792CD501B21201300F274E1FCA
:1008B0005C2C013080380F27301D6B2C501F632CAF
:1008C000301730116B2CA030CB008A150A160D2082
:1008D0008A110A1230113419702C4E1B752C792C88
:1008E00034115708C0380F27792C0130C0380F2732
:1008F000792C4E1CFB2C0530CE180430CB008A1509
:100900000A16AB208A110A12BA00FB2C4D1CA92C26
:10091000331CA92C241EFB2CBA080319FB2CBA0B80
:10092000FB2C0230B900321005164E1F9C2CB41C53
:10093000FB2C01300F27FB2CBA014F1AA62C8A156D
:100940000A16073000208A110A12FB2C02300727F2
:10095000FB2CA0204E1BB32CB41AB32CB41CC42CFB
:1009600001300F27BB2CB41CB72C01300F270130EE
:100970000727B412CD2C0030B41B0330B4138A15F2
:100980000A1600208A110A12CA01061E4A14861A83
:10099000CB2C511FCA14A620B620FB2C4D1CD22CE8
:1009A0003318FB2C0030B9004E1BDF2C4F1AE12C02
:1009B0008A150A16073000208A110A12FB2C013012
:1009C000E22C02300727FB2C331CE72CFB2C0516EE
:1009D0000030B900B41CEE2C01300F278A150A161E
:1009E000003000208A110A12FB2C3318FB2C003037
:1009F000B900B620FB2CFE2CA41CFE2C241D0E2DB1
:100A0000C30803190E2DC30B0E2D51080339FF3AED
:100A1000D2058A110A1693208A110A12A41D492DA3
:100A2000BC080319422D3208A039031D422D3C0891
:100A30004402053C031D2F2D3208B0390319222D25
:100A4000B0162F2D4A0A03192F2D4D1F2F2D0730B9
:100A5000F41ACA008A150A1629208A110A12BC0B38
:100A6000422D3211501C392DD01C8620D018662002
:100A7000422DB208031D422DC1080319422DC10B9E
:100A8000422DC120BD080319492DBD0B492D321837
:100A90000512241E522DC2080319522DC20B522DCD
:100AA0001F30F405A41E672DBB0803195A2DBB0B7C
:100AB0005A2D5020C0080319622DCF1E622DC00B85
:100AC000622D0610BF080319672DBF0B672DB208F2
:100AD0000319722DB019792D8A150A1681208A11F1
:100AE0000A12792DB01D792D8A150A1696208A11C1
:100AF0000A12B21FBF2DA41CBF2DC70BBF2D490862
:100B0000C700C50BBF2DA41FA32DA41303018A1575
:100B10000A162C268A110A1246030319922D013057
:100B2000C500BF2D8A150A1666208A110A12C60052
:100B30000319A02D460A0319B82D0330C500BF2D97
:100B40000730C500BF2D460A0319B82DC608031D7E
:100B5000AA2D922D013046180330C500A41748086D
:100B60008A150A162C268A110A12C60CC613BF2D26
:100B7000B213301DBE2DB01030113013B701A41DBB
:100B8000C72DF3080319C72DF30BC72D7414241DAB
:100B9000DF2DB5080319D42DB50BDF2D8A150A16E4
:100BA00052208A110A12DF2DC508031DDF2DB70858
:100BB0000319DF2D8A150A1652208A110A12A40879
:100BC000031D332E741AF62D741CF52D203084006D
:100BD0007208AF003C267208AF00F201F501F5166D
:100BE0007416F41AF4157410F62D332EF4192A2EF7
:100BF000A030840075081F39A9000830AA00290810
:100C0000CB000310CB0DCB0DCB0DB030CB078A152D
:100C10000A16AB208A110A12AB00FF3C0319212EE1
:100C20002B080002031D1A2EAA0B172E1A2ECB0A10
:100C3000840A072EF50A75081F39083C0319302E5F
:100C4000332E2A08083CAF028A150A1200208A11A6
:100C50000A12302E8A110A1600208A110A12302E2A
:100C6000F5017412F411B11B5826CF1A3B2E4F1BFD
:100C700006144F1F0610852A30160408A900A0305C
:100C8000AB00290884000008AA002B088400301E4D
:100C90004C2E2A0E30124F2E3016A90A2A080F3970
:100CA0008000AB0AAF0B412E840AFF3080000800A1
:100CB000AA01C030840083130008AA07523A03191E
:100CC000912E0008573A031DB52EB826CB000830E8
:100CD000CC00AE003030AD00B826E526AE0B6C2E51
:100CE0002A08AC00B8262C02031D882E831730304A
:100CF00084008A150A16BA208A110A1283134B300F
:100D0000F1260D30F1260A30F1268317B1130800C1
:100D10004E30F1260D30F1260A30F1268317B1133B
:100D20000800B826CB00840A00080D3A031DB52E32
:100D300029080339031DB52E0830AB00AA013A304B
:100D4000F1265730AA07F1262908CF268A150A1658
:100D5000AB208A110A12CF26CB0AAB0BA62E2A088B
:100D6000CF260D30F1260A30F1268317B113080083
:100D7000840A0008AA07C526A900A90E840A00084B
:100D8000AA07C526A904290808007F39AB002B1B38
:100D9000CB2E0F3908000739093E0F390800A9008A
:100DA000290E0F39DB26AA07F12629080F39DB2681
:100DB000AA07F1260800AC00093C031CE22E2C080F
:100DC000303E08002C08373E08000408AC008317AA
:100DD0002D08840029088000AD0A83132C088400A4
:100DE00008008B138B1BF12EAD000408AE00780AAF
:100DF0001F39F800A03E84002D088313800083175C
:100E00002E08840083160C1683128B1708004038B6
:100E1000AC0025300F272C080F27B2160800AD00B4
:100E2000013A031D182FD501E1106110FC01FD01ED
:100E30000408AE007C0A0739FC00E03E84002D085F
:0C0E40008313800083172E088400080034
:1010000008308A002908073982070D2833284A2822
:101010005C2869286A286B286C28CD1F1128311F8D
:10102000080002302F02031C08002F08033C031C99
:1010300008000008AA00053C031C08002A088A15BD
:101040000A1600268A150A12540503190800840A94
:10105000AF030008A900840AAF03073C031C080083
:101060008A110A164828CD1E08002F0B0800800898
:1010700003194528000B08000330CB008A150A1617
:10108000AB20BF008A150A120800BF080319080028
:10109000BF0108002F08031908000008840AAA00ED
:1010A00003197528043C031C75282A08A90005307B
:1010B000AA008A110A1648282F0B08000008043CD1
:1010C000031C080000088A150A16E0208A150A1277
:1010D0007C280800080008007508E039F40478301E
:1010E000C2000730CA007C2808008A150A1603309F
:1010F00000208A150A1208008A150A1600300020FE
:061100008A150A12080026
:102000007830C2000730CA00A030840000080E3CBF
:102010000319172800080F3C031DD8297508E0395B
:10202000FF3AF405C201FF30CA00D4290800840A2F
:102030000008A900840AAF03AF0310308A00290802
:102040000F3982073228AD28C728FC282B292C29D4
:102050002D292E29A729D129D129D129D129D12921
:10206000D229D32902302F02031CD8292F08033C80
:10207000031CD8290008AA00093C031CD829840A9B
:10208000AF030008A900840AAF03073C031CD8294A
:102090008A150A16290800268A110A16A900AF080F
:1020A00003199C280008FE39031DD8298008031D48
:1020B0006D284D3084002A08840783132908FF3ACD
:1020C000800583172A08053C031993200D308A15D3
:1020D0000A1600208A110A1608004D3084002A08CA
:1020E000840783132908800483172A08053C031DED
:1020F0008128932052085105033903198228323070
:10210000C30089200A308A150A1600208A110A168F
:1021100008004E1F08008A110A12013080380F276C
:102120008A110A160800521C061352180617D21CF0
:102130008613D218861708004D3084002A088407B9
:1021400083132908000583170A3003190D308A15F7
:102150000A1600208A110A1608005318D8292F08D9
:10216000013C031DD8290008043C031CD829103069
:10217000CB00000ECB070830CC004D308400831319
:102180008A150A16BA208A110A168317D429D31879
:10219000D82903302F02031CD8292F08093C031C1F
:1021A000D8298A150A1617268A110A16A900840A40
:1021B000AF030008A9072908073C031CD829AF036F
:1021C000840A2908073C031DEB28FF308500051A07
:1021D000D629EF3085002F08CC00CC0AB030CB00D8
:1021E0000310A90DA90DA90D2908CB078A150A16F8
:1021F000BA208A110A16D42902302F02031CD829CA
:102200008A150A1617268A110A16AA00840AAF032D
:102210000008AA07840AAF032A080A3C031CD8292D
:102220002A08CB00AF080319D8295319D8298A15D1
:102230000A16F320AC00C4208A110A164B08073C8A
:10224000031D25290130C100D4298A150A16BE268E
:102250008A110A16D429D829D829D829AF080319F0
:10226000D829800803197B29000BD829840AAF03D9
:102270000319D8290008AA00073C031CD829840A9E
:10228000AF03031D4B292A08CA008A150A16292004
:102290008A110A160800531BD8296030CB0003109E
:1022A000AA0DAA0D2A0DCB0703302F05031DD8292F
:1022B0002F08103C031CD8293030F600CC018A15B9
:1022C0000A160F2119210F218A110A16A900AF0839
:1022D000031DA91729088A150A1619218A110A1639
:1022E000AF08031D5F29303084008A150A16BA2012
:1022F0008A110A16D429840AAF0B8629A030CB0094
:102300008A150A160D208A110A160800531BD829AF
:102310002F18D8293030F600CC018A150A160F2163
:10232000002419218A110A16AF08031D8D29FF30D8
:102330008A150A1619218A110A16A030CB003030EE
:1023400084008A150A16BA208A110A16D4290008B0
:102350000319C22901300002031DD829840AAF03E2
:102360000319D8290008033C031CD829D31BD829FA
:102370000008D7008A110A1280380F278A110A161E
:102380003415D429840AAF030319D8290008033C63
:10239000031CD82900088A110A1207278A110A1675
:1023A0000800D829D229D8290030D929EF30850052
:0E23B00003308A150A1600208A110A1608004A
:10300000A9002908B6008930B7006620C60007303D
:10301000C500A413B2178120080037081C39031D0E
:103020004D204B08B6008830B7006620C600073038
:10303000C500A413B21781200800A900B708031D1A
:1030400008002908B6008530B7000530B5003217F2
:103050000800CA1B0800B708031D08006030B6004E
:103060004A080739A9000310A90DA90D290DB607B3
:10307000FF30CA003608CB00AB20A900031D47284B
:1030800003308A110A1207278A150A1608008430AD
:10309000B7000530B50032170800B501B7010301CC
:1030A0002C260800371B5D286620B5006620A90085
:1030B000A91F37173F30A9056328A9013213B21A97
:1030C0006328B701B50129082C2608003708033901
:1030D000A90018308A0029088207712876287A28E2
:1030E0007F283608CB00B60AAB2008003608B60A9F
:1030F0008326080036088400B60A00080800FF305E
:103100000800B01908000714B015BB0803198B2874
:10311000B01891288C283014B0140230CB00AB20AA
:10312000BB00CF1E0800C001061408000710B01134
:10313000CF1E08000630CB00AB20C00003190610DC
:103140000800CC0803190800AB208000CB0A840AD1
:10315000CC0BA42808008B138B1BAB284B08031740
:1031600083128D0083168C130C1483120C08031326
:103170008B170800CC08031908000008C420840A33
:10318000CB0ACC0BBD280800AB008B138B1BC528CA
:103190004B08031783128D0003132B0803178C00B1
:1031A00083168C130C1555308D00AA308D008C14AD
:1031B00064000C158C18DA28831203138B1708008F
:1031C000A9001030CB00290ECB070830CC004D30C1
:1031D00084008313A12083178A110A169320892063
:1031E0008A150A160800AB012F08AC0003190D2937
:1031F000AC0303190929AC0303190529AC03031D0A
:103200000D290E26AB07840AAF031726AB07840AE5
:10321000AF030008AB07840AAF032B08080017268A
:10322000AE00840AAF030008AE07840AAF032E087D
:103230000800AD000408AE00760884002D08800068
:10324000F60ACC0A2E0884000800AD00AE00003E4D
:10325000AE0DAE0D2E0D2D072D0708000339D6003B
:10326000AC24DC00B524DD004E1F38290330D60025
:10327000BE24DE00C724DF00080006116821D80044
:1032800000306821D9000615080006116821D80011
:103290005C086821D9005D086821DA00061508007D
:1032A000061160086821D80003016821D9005C0874
:1032B0006821D8005D086821D9005E086821D8001F
:1032C0005F086821D90003016821D80006150800AD
:0E32D00093008316141C6A2983121308080049
:10380000A9001C308A00A913290882073F343E34DE
:103810003C343834303420342134233427342F34AA
:103820000034003429342A3431345834003400341C
:1038300000340034003406341134153400340034BC
:1038400000340034003400340034093402341434B9
:1038500000340034003400340034003400340B34BD
:1038600010340434003400340034003400340034A4
:1038700000341E340D34123400340034003400346B
:10388000003400340034073405340F34003400347D
:1038900000340034003400341B3416340A34083445
:1038A0000034003400340034003400340034033475
:1038B0000C34183400340034003400340034003444
:1038C00013340E3419341D34003400340034003401
:1038D0000034003400340034003400340034003448
:1038E0000034003400340034003400340034003438
:1038F0000034003400340034003400340034003428
:10390000003400340034003400340034A9001C308A
:103910008A0029081F398207F034F034F034F0347B
:10392000F034F034C834AB349634853478346D34A4
:1039300064345C34563450344B34473443343F346D
:103940003C34393437343434323430342E342C343B
:103950002B342934283428341C308A005608033983
:10396000820708340A3409340B341C308A005608A4
:103970000339820700340034003400341C308A00DC
:10398000560803398207F234F134F334F0341C3032
:103990008A0056080339820700340034003480342A
:103A0000A9001D308A002908820764343234363414
:103A10003C34B4341E340C3400340C3414341434B8
:103A20000034003400340034003448340B341F3484
:103A300000340034003400347F3400340034003467
:103A4000003400340034003400344B340F340D346F
:103A500001340034003400343F3400340034003486
:103A60000034003400340034003448340B341F3444
:103A700000340034003400347F3400340034003427
:103A80000034003400340034003448340B341F3424
:103A900000340034003400347F3400340034003407
:103AA0000034003400340034003448340B341F3404
:103AB00000340034003400347F34003400340034E7
:103AC0000034003400340034003405348C340534C0
:103AD0008F3405349334053416340A348C340A3464
:103AE0000F3400340034003400340A348C340A3487
:103AF0008F340A34153400340034053496340534D8
:103B0000933405348F3405340B340A3496340A3434
:103B100093340A341034003400340A340834003446
:103B2000003400340034003400340A3413340034D8
:103B3000003400340034003400340A349F340A3432
:103B400093340A349F340A341334053410340A345D
:103B50001534003438346A343E34003418343E347A
:103B60006A343F343C34FF34FF3400340034FF34D3
:103B7000FF34FF34FF34FF34FF3400340134FF34AA
:103B8000FF34FF34FF34FF34FF3400340234FF3499
:103B9000FF34FF34FF34FF34FF3400340334FF3488
:103BA000FF34FF34FF34FF34FF3400340434FF3477
:103BB000FF34FF34FF34FF34FF3400340534FF3466
:103BC000FF34FF34FF34FF34FF3400340634FF3455
:103BD000FF34FF34FF34FF34FF3400340734FF3444
:0A3BE000FF34FF34FF34FF34FF34DC
:103C0000A9001E308A0029080739820701340234CE
:103C10000434083410342034403480341E308A0098
:103C200000080339820700346434C83400341E307D
:103C30008A0000080F39820700340A3414341E3415
:103C4000283432343C34463450345A34003400344E
:103C50000034003400340034A9000319372E5E26E6
:103C60009600392695008E018F011014080010105F
:103C700008001E308A0029081F398207FF340134EA
:103C8000B93475343534F834BF3489345734273473
:103C9000F934CE34A63480345C343A341A34FC34EB
:103CA000DF34C434AB3493347C346734533440341D
:103CB0002E341D340D34FE34EF34E2341E308A00CD
:103CC00029081F398207FF340534043404340434CE
:103CD000033403340334033403340234023402342F
:103CE0000234023402340234013401340134013428
:103CF000013401340134013401340134013401341C
:103D0000003400340034A9001E308A0029083F39ED
:103D100082070F340D34FF3402340A340A34FF347E
:103D200003340F34FF340F340534FF340F341434AC
:103D30001434FF34053410340A34153400343C3460
:103D40006A343E34003418343E346A343F343C34F0
:103D5000FF34AE001E308A002E0882070D34013475
:103D60000234033404340534063407340834093487
:103D700000340E340F340A340B340C340930CB00C9
:103D8000AB20C8000A30CB00AB208624C900080055
:103E0000FF03FF03FF03FF03FF03FF03FF03FF03A2
:103E1000FF03FF03FF03FF03FF03FF03FF03FF0392
:103E2000FF03FF03FF03FF03FF03FF03FF03FF0382
:103E3000FF03FF03FF03FF03FF03FF03FF03FF0372
:103E4000FF03FF03FF03FF03FF03FF03FF03FF0362
:103E5000FF03FF03FF03FF03FF03FF03FF03FF0352
:103E6000FF03FF03FF03FF03FF03FF03FF03FF0342
:103E7000FF03FF03FF03FF03FF03FF03FF03FF0332
:103E8000FF03FF03FF03FF03FF03FF03FF03FF0322
:103E9000FF03FF03FF03FF03FF03FF03FF03FF0312
:103EA000FF03FF03FF03FF03FF03FF03FF03FF0302
:103EB000FF03FF03FF03FF03FF03FF03FF03FF03F2
:103EC000FF03FF03FF03FF03FF03FF03FF03FF03E2
:103ED000FF03FF03FF03FF03FF03FF03FF03FF03D2
:103EE000FF03FF03FF03FF03FF03FF03FF03FF03C2
:103EF000FF03FF03FF03FF03FF03FF03FF03FF03B2
:103F0000FF03FF03FF03FF03FF03FF03FF03FF03A1
:103F1000FF03FF03FF03FF03FF03FF03FF03FF0391
:103F2000FF03FF03FF03FF03FF03FF03FF03FF0381
:103F3000FF03FF03FF03FF03FF03FF03FF03FF0371
:103F4000FF03FF03FF03FF03FF03FF03FF03FF0361
:103F5000FF03FF03FF03FF03FF03FF03FF03FF0351
:103F6000FF03FF03FF03FF03FF03FF03FF03FF0341
:103F7000FF03FF03FF03FF03FF03FF03FF03FF0331
:103F8000FF03FF03FF03FF03FF03FF03FF03FF0321
:103F9000FF03FF03FF03FF03FF03FF03FF03FF0311
:103FA000FF03FF03FF03FF03FF03FF03FF03FF0301
:103FB000FF03FF03FF03FF03FF03FF03FF03FF03F1
:103FC000FF03FF03FF03FF03FF03FF03FF03FF03E1
:103FD000FF03FF03FF03FF03FF03FF03FF03FF03D1
:103FE000FF03FF03FF03FF03FF03FF03FF03FF03C1
:103FF000FF03FF03FF03FF03FF03FF03FF03FF03B1
:02400E00A927E0
:104200006400320039003C00B4000F0006000000DA
:104210000C0014001400000000000000000000006A
:1042200049000B000F0000000000000000003F00EC
:10423000000000000000000000000000000000007E
:104240005B000F001F0001000000000000003F00A5
:10425000000000000000000000000000000000005E
:1042600049000B000F0000000000000000003F00AC
:10427000000000000000000000000000000000003E
:1042800049000B000F0000000000000000003F008C
:10429000000000000000000000000000000000001E
:1042A000490049000F0000000000000000003F002E
:1042B00000000000000000000000000000000000FE
:1042C00005008C0005008F00050093000500160016
:1042D0000A008C000A000F0000000000000000002F
:1042E0000A008C000A008F000A0015000000000080
:1042F000050096000500930005008F0005000B00E7
:104300000A0096000A0093000A0010000000000056
:104310000A0008000000000000000000000000008B
:104320000A00130000000000000000000000000070
:104330000A009F000A0093000A009F000A00130071
:10434000050010000A001500000038006A003E0059
:10435000000018003E006A003F003C00FF00FF0024
:1043600000000000FF00FF00FF00FF00FF00FF0053
:1043700000000100FF00FF00FF00FF00FF00FF0042
:1043800000000200FF00FF00FF00FF00FF00FF0031
:1043900000000300FF00FF00FF00FF00FF00FF0020
:1043A00000000400FF00FF00FF00FF00FF00FF000F
:1043B00000000500FF00FF00FF00FF00FF00FF00FE
:1043C00000000600FF00FF00FF00FF00FF00FF00ED
:1043D00000000700FF00FF00FF00FF00FF00FF00DC
:1043E00001000100010001000000000000000000C9
:1043F00000000000000000000000000000000000BD
:00000001FF
