:040000004928320059
:080008008C008C0E030E8D002C
:100010000B190B284528901F1228061F11280613BC
:1000200012280617910B17280F14AF309100920B6E
:100030001C288F1669309200861F2D28AA080319E4
:1000400044280E192628AA0B44282B28AA0B292855
:100050002B28AA0B44288F1744288E183E280E19E7
:100060003828AA1A4428AA0AAA1E44288F1344280A
:100070002A0F3C288F134428AA0A442832302A0227
:1000800003188F132A0FAA0A0B110D0E83000C0EF2
:1000900009000C30860083161F30850081308600F1
:1000A0008030810083129001850195018F018F17A7
:1000B0009F01AF309100693092000A3093009400A4
:1000C0008E0199019A019B01AB01AC019D019C013C
:1000D000A201AA010430A100051A84289015373026
:1000E0008900BC238800AC23890803197928890377
:1000F00071280130880038308900AC23890AAC238C
:10010000890AAC23890AAC2383160F308500831239
:100110000030532201305322023053220330532245
:100120000430532205305322A0308B0005166400A2
:100130008F1EC8288F12101FC8289E0BC828901F1A
:10014000B728901328030319A82801309E00C82857
:10015000A70A27086123A8000319B428280A03194D
:10016000C62803309E00C82807309E00C828280AE9
:100170000319C628A808031DBE28A828013028187E
:1001800003309E009017A80CA813C82810139F23B3
:10019000E1308F050F1CD8280F108F14930BD8282F
:1001A0000A3093000F15940BD8280A3094008F154D
:1001B0008F1B0F1600308A0015088207E3281629C6
:1001C0008C29562995290F1A95298E1CFC28101B5D
:1001D00095292B082C041C04031D9529013095003A
:1001E000061586159F1BF82814308E1B15309F00AE
:1001F00086100512EA22952993232B082C041C044F
:1002000003190A299F180A29AB01AC010615003011
:100210009F0007239D0803190512101F901317084C
:100220009A00013095009F1BEA2295290F1D1D2978
:100230009A08031D9A0B1D294E290F1E9529051694
:100240009D01901E38290323AB01AC0100309500BD
:100250001F1D2D290723101095291F080339383E2B
:1002600089002D038800AC2302309F0007239529C5
:100270008E182A299D019A0116080319432999000D
:100280000330950045290030950010186E23901C0E
:1002900095291B08063C03186E23952905169D0118
:1002A0000230950012309F00072395290F1EFD286C
:1002B0008F1C9529101B7C290E1A7C291908023ED7
:1002C0000E1F033E1602031D74292B082C041C0468
:1002D000031D7C290E1B6E2990177C299F1B7C29EE
:1002E00013309F0007237C290E1B7C291908073E29
:1002F0001602031D7C299013990B95290030950057
:10030000A90803199529A90B952905306123A9008E
:1003100013309F00072395290F1E95290030950063
:100320008E18952912309F0007238F1CC7292B0890
:100330002C040319C729901EA029AD0A0319AE0A7F
:10034000AC080319A829AB080319AC03AB03C729F0
:10035000AB0BC729901EBF2903231F1DB7299A0184
:100360009D0105160230950007231010C7291F08AC
:100370000339383E89002D038800AC23C7290615B0
:100380008E1CC7291B08063C03186E23D6299B0820
:100390000319D6298F1DD6298E1CD3291B03031DB3
:1003A000D329901AD6299B0BD6296E239C080319B2
:1003B000DE298F1CDE299C0BDE291923061CEC2963
:1003C00010191C2A10158E1AE82914309D000516E4
:1003D00005080F39A0001C2A101D1C2A10119019A5
:1003E0000F2A2108031D002A0430220203191D2AA6
:1003F0002330220784002008E8238000A20A1D2A57
:10040000043C3C3E61232002031D082AA1031C2A50
:100410000430210203191A2A0430A100002A2108FD
:10042000043C3C3E890020088800AC23A10B1C2A18
:1004300090110F170430A1009F238F1C282A9D08BC
:100440000319282A9D0B282A1508013C03190512B7
:100450000F1A2F2A101E9728101267239728101A98
:1004600097281016A2080319DA2A04302202031D65
:10047000DA2A230E2404A300250E2604A500A31BBC
:10048000E32A231B902A2308373C031CE32A230872
:10049000890025088800AC232308532202309F00DE
:1004A0000723672397288900053C031C08000230B6
:1004B0008A0009088207612A752A842A872A8A2ADB
:1004C0008D2A6123031D702A043095008E1C0800BC
:1004D000061586159C01AD01AE01AB01AC0108000B
:1004E0000030950010109010080061238E00150850
:1004F000043C0319080099019A01AB01AC019D016C
:100500009C010323950108006123960008006123E4
:10051000970008006123980008006123A9000800E3
:1005200023088E39031DE32A02308A00230E033983
:1005300082079D2AA62ABA2ACC2A25089F00231CB6
:10054000A42A9C019F179728072397280E1CE32AAB
:1005500023080F39031DE32A251AB42A2518B22AC5
:100560000611E52A0615E52A2518B82A8611E52A76
:100570008615E52A23080E39031DE32ACD22231808
:10058000C52A8E098E048E09C62A8E040130890080
:100590000E088800AC23E52AE32A02308A002508E9
:1005A000073982070134023404340834103420340B
:1005B00040348034901DDE2A0030E62A0F1FE82ADE
:1005C0000F130230E62A0330E62A02309F00072389
:1005D000672397289F13AD01AE011F19F22ADF3060
:1005E000AB00FE2A8E1BF92A0330AC008230AB0030
:1005F000FE2A0230AC00A130AB00FE2A5A2390162E
:1006000086110611080006158615901208001F1E97
:10061000152B2B082C041C040319152B1F1908007B
:100620009F1808000615AB01AC0103309C00932312
:1006300008001F1E2D2B1F19362B8E1C212B8E1FE1
:100640002B2B0E1C362B1F129F1C2B2B1F18080048
:1006500001309F002D2B00309F00DF23A700612376
:10066000A80007309E009013101708005A231F1D82
:100670004D2B2D082E0403194B2BAD080319AE0387
:100680002D03AB002E08AC00AD01AE012B082C04ED
:1006900003194B2B582B86100800AC011F08033997
:1006A000383E89006123AB00031D582B86100800DB
:1006B00006110800061286121F1806169F188616C5
:1006C0000800890083160814831208080800043003
:1006D000A100A201A301A401A5010800901C08002B
:1006E0000E18882B8E187D2B0F1E882B103010189B
:1006F000892B8E1B882B1130892B2B082C041C0472
:10070000031D882B8E1F882B0F1E882B1030892BE2
:1007100000309F00072318089B0010101508013CAB
:10072000031D9010080086149B0803199A2B90183B
:1007300008009B2B1014901418089B000800151833
:1007400008002B082C04031D08009C08031D08004A
:10075000101B080086100800640083168B13081510
:1007600055308900AA3089008814081100008818C3
:10077000B62B8B178312080009081A3C031C00349F
:1007800003308A00090882070034083432341E34EA
:10079000363400340F340D34FF3405340B34FF3459
:1007A00003340F34FF340934023400340534103478
:1007B0000A34153429343834FF34FF34FF3403301D
:1007C0008A001F08033982070F340C3406340934B9
:1007D00003308A00200882070D34013402340334C8
:1007E00004340534063407340834093400340E3434
:0807F0000F340A340B340C3401
:02400E000D00A3
:00000001FF
