:020000040000FA
:040000002828190093
:08000800A000A00E030EA100F0
:100010000B190B282428A41F1928241F1428A31BFC
:100020001328A3171928A313051E18280512192829
:100030000516A20B1E282314AF30A200A50B2328FF
:1000400023166930A5000B11210E8300200E090034
:10005000860107309F008316BF3085000030860080
:10006000803081008312A401A3018501AC01B2019B
:10007000AA01AF30A2006930A5000A30A600A7008F
:10008000AB01B3010430B100051A5128A4153F306B
:10009000F1002422F200EA21F10803195128F103AA
:1000A00049288316AF30850083120030F1009B2170
:1000B0000130F1009B21AC21A0308B006400231E95
:1000C0008F282312A31E8F28AD0B8F28A41F7E28F4
:1000D000A4132F0303196F280130AD008F28AE0A37
:1000E0002E08E021AF0003197B282F0A03198D2861
:1000F0000330AD008F280730AD008F282F0A031979
:100100008D28AF08031D85286F2801302F18033074
:10011000AD00A417AF0CAF138F28A3120513F13055
:10012000A305231C9F282310A314A60B9F280A3085
:10013000A6002315A70B9F280A30A700A315A31D0F
:10014000A728AB080319A728AB0BA7280A22AA08DF
:100150000319B028A31CB028AA0BB02828088600D1
:10016000B2080319BF28A31CBF28B20BBF28B308CD
:100170000319BF28043033020319FF200022851E13
:10018000C82824195E28241505080F39B0005E28F8
:10019000241D5E282411A419EF280F30B200310865
:1001A000031DE028043033020319DE2834303307FE
:1001B0008400300875228000B30AFE28B301FE28AF
:1001C000043C3C3EE0213002031DE828B103FE2838
:1001D000043031020319FA280430B100E028310854
:1001E000043C3C3EF1003008F200EA21B10BFE284D
:1001F000A411AC210430B100241AB1015E28340EE0
:100200003504B400360E3704B600B41B7929341B0C
:10021000172934083B3C031C79293408F1003608BF
:10022000F200EA219B210130AC00C921080034080A
:100230008E39031D792901308A00340E0339820773
:10024000242926292729572936087C297929340881
:100250000E39031D79293608B8000130B802031C95
:1002600079293808F839031D792938087F2134188D
:100270003E29A809A804A80904304E29B800290578
:10028000031D46293808A80403304E29380886047F
:100290000530AA000530AC00D4210800AC000030C5
:1002A000F1002808F200EA219B21D421080034083B
:1002B0000E39031D79293608B8000130B802031C35
:1002C00079293808F839031D792938087F2134182D
:1002D0006D29A909A904A9096E29A9040130F10011
:1002E0002908F200EA219B217B29A41D7B290030EB
:1002F0007C2902307C290130AC00C9210800B800FB
:1003000001308A0038080739820701340234043486
:100310000834103420344034803401308A000130F5
:100320003602073982073E343C34383430342034C6
:100330002134233427347108013C031C08000130A8
:100340008A0071088207A529A929E021A800860052
:100350000800E021A90008003C30E0210A3A031D12
:10036000C3293D30E0210A3A031DC3293E30E02174
:100370000A3A031DC3293F30E0210A3A031DC3296D
:100380002416B101080024120430B1000800003026
:10039000AC00A41324136822AE00E021AF000730A4
:1003A000AD00A31614220800A41324136822AE0083
:1003B000AE038D21AF000730AD00A3161422080054
:1003C0008B138B1BE02983169B001C141A088312C5
:1003D0008B1708008B138B1BEA29640083167108A6
:1003E0009B0072089A001C1555309D00AA309D0094
:1003F0009C141C1100009C18FA2983128B1708000A
:100400000430B100241AB101B301B401B501B60141
:10041000B7010800A41C08000030AC00C92102305C
:10042000E021AB00A41008000517AB0803191A2A35
:10043000A4181B2A2414A4140230E021AB000800E5
:1004400024180A22A41C080002308A0071088207BE
:1004500000340034323410340434FF3412340F3496
:10046000FF3416340C34FF340F340D34FF340534AC
:100470000B34FF34093402340034053410340A34A8
:10048000153429340A34023407340F340334023467
:10049000FF34FF34FF34FF34FF34FF34FF34FF34C4
:1004A000FF34FF34FF34FF34FF34FF34FF34FF34B4
:1004B000FF34FF34FF34FF34FF34FF34FF34FF34A4
:1004C000FF34FF34FF34FF34FF34FF34FF34FF3494
:1004D00002308A002C080739820712340C340F349A
:1004E0000334063409340F340F3402308A003008E4
:1004F00082070D34013402340334043405340634E5
:1005000007340834093400340E340F340A340B3401
:020510000C34A9
:02400E00471F4A
:00000001FF
