:0400000013280C00B5
:08000800A000A00E030EA100F0
:100010000B190B280F280D30810022140B11210E13
:100020008300200E0900183085000230860007305A
:100030009F00831600308500F030860081308100FB
:100040008312A301A2010A30A400A500A600A70103
:10005000A801A901AA01AC01AD01AE0123148614C7
:1000600005168515A0308B006400F130A205221C16
:100070004A282210A214A40B4A280A30A4002215F0
:10008000A50B4A280A30A500A215A60B4A280A305B
:10009000A600A215A21D5128051C502805105128A4
:1000A0000514A21CCF28061E6B28A8198228A80AAE
:1000B000A81D8228231A82282316231C61280512D2
:1000C0000515A31C65289630AD0086100614AC01FA
:1000D000A31906118228A80803198228A80B8228D0
:1000E000231E82282312231C772805160511A31C22
:1000F0007B289630AC00AD0186140610A31D822823
:10010000231B0615861E9A28A919A228A90AA91D2B
:10011000A228A31AA228A3162311A30A231164302C
:10012000AE00231C051123180515A31C8510A31868
:100130008514A228A9080319A228A90BA228A31E86
:10014000A228A312061FB328AA19BC28AA0AAA1D0E
:10015000BC28231BBC282317A31DB128231EB128AC
:10016000BC280615BC28AA080319BC28AA0BBC2861
:10017000231FBC2823130611861BC028A315C128E2
:10018000A311AC080319C828AC0BC8288515851025
:10019000AD080319CF28AD0BCF2885118514221D7A
:1001A000DE28AE080319DE28AE0BDE28051A05117D
:0E01B000051E051585198510851D851434283A
:02400E00750338
:00000001FF
