:020000040000FA
:040000004928350056
:080008008C008C0E030E8D002C
:100010000B190B284528901F1228061F11280613BC
:1000200012280617910B17280F14AF309100920B6E
:100030001C288F1669309200861F2D28AA080319E4
:1000400044280E192628AA0B44282B28AA0B292855
:100050002B28AA0B44288F1744288E183E280E19E7
:100060003828AA1A4428AA0AAA1E44288F1344280A
:100070002A0F3C288F134428AA0A442832302A0227
:1000800003188F132A0FAA0A0B110D0E83000C0EF2
:1000900009000C30860083161F30850081308600F1
:1000A0008030810083129001850195018F018F17A7
:1000B0009F01AF309100693092000A3093009400A4
:1000C0008E0199019A019B01AB01AC019D019C013C
:1000D000A201AA010430A100051A84289015373026
:1000E0008900BE238800AE23890803197928890373
:1000F00071280130880038308900AE23890AAE2388
:10010000890AAE23890AAE2383160F308500831235
:10011000003055220130552202305522033055223D
:100120000430552205305522A0308B00051664009E
:100130008F1EC8288F12101FC8289E0BC828901F1A
:10014000B728901328030319A82801309E00C82857
:10015000A70A27086323A8000319B428280A03194B
:10016000C62803309E00C82807309E00C828280AE9
:100170000319C628A808031DBE28A828013028187E
:1001800003309E009017A80CA813C8281013A123B1
:10019000E1308F050F1CD8280F108F14930BD8282F
:1001A0000A3093000F15940BD8280A3094008F154D
:1001B0008F1B0F1600308A0015088207E3281829C4
:1001C0008E29582997290F1A97298E1CFC28101B55
:1001D00097292B082C041C04031D97290130950036
:1001E000061586159F1BF82814308E1B15309F00AE
:1001F00086100512EC22972995232B082C041C0449
:1002000003190C299F180C298E190C29AB01AC017C
:10021000061500309F0009239D0803190512101FC1
:10022000901317089A00013095009F1BEC22972924
:100230000F1D1F299A08031D9A0B1F2950290F1EF5
:10024000972905169D01901E3A290523AB01AC01A3
:10025000003095001F1D2F290923101097291F0812
:100260000339383E89002D038800AE2302309F00F9
:10027000092397298E182C299D019A011608031924
:100280004529990003309500472900309500101842
:100290007023901C97291B08063C0318702397298C
:1002A00005169D010230950012309F000923972901
:1002B0000F1EFC288F1C9729101B7E290E1A7E29E1
:1002C0001908023E0E1F033E1602031D76292B0855
:1002D0002C041C04031D7E290E1B702990177E29F7
:1002E0009F1B7E2913309F0009237E290E1B7E2928
:1002F0001908073E1602031D7E299013990B9729B2
:1003000000309500A90803199729A90B97290530F2
:100310006323A90013309F00092397290F1E9729F3
:10032000003095008E18972912309F0009238F1CEA
:10033000C9292B082C040319C929901EA229AD0A2A
:100340000319AE0AAC080319AA29AB080319AC03B8
:10035000AB03C929AB0BC929901EC12905231F1D59
:10036000B9299A019D010516023095000923101044
:10037000C9291F080339383E89002D038800AE23A0
:10038000C92906158E1CC9291B08063C03187023B1
:10039000D8299B080319D8298F1DD8298E1CD52947
:1003A0001B03031DD529901AD8299B0BD82970232C
:1003B0009C080319E0298F1CE0299C0BE0291B23D2
:1003C000061CEE2910191E2A10158E1AEA2914305F
:1003D0009D00051605080F39A0001E2A101D1E2AB3
:1003E00010119019112A2108031D022A043022023B
:1003F00003191F2A2330220784002008EA238000E3
:10040000A20A1F2A043C3C3E63232002031D0A2A41
:10041000A1031E2A0430210203191C2A0430A10062
:10042000022A2108043C3C3E890020088800AE23B3
:10043000A10B1E2A90110F170430A100A1238F1CBD
:100440002A2A9D0803192A2A9D0B2A2A1508013CED
:10045000031905120F1A312A101E9728101269234A
:100460009728101A97281016A2080319DC2A0430BE
:100470002202031DDC2A230E2404A300250E2604D9
:10048000A500A31BE52A231B922A2308373C031C43
:10049000E52A2308890025088800AE232308552271
:1004A00002309F000923692397288900053C031C1B
:1004B000080002308A0009088207632A772A862A00
:1004C000892A8C2A8F2A6323031D722A04309500FF
:1004D0008E1C0800061586159C01AD01AE01AB010E
:1004E000AC01080000309500101090100800632344
:1004F0008E001508043C0319080099019A01AB010C
:10050000AC019D019C010523950108006323960021
:100510000800632397000800632398000800632302
:10052000A900080023088E39031DE52A02308A003D
:10053000230E033982079F2AA82ABC2ACE2A25081F
:100540009F00231CA62A9C019F1797280923972800
:100550000E1CE52A23080F39031DE52A251AB62AA1
:100560002518B42A0611E72A0615E72A2518BA2AFB
:100570008611E72A8615E72A23080E39031DE52A86
:10058000CF222318C72A8E098E048E09C82A8E040A
:10059000013089000E088800AE23E72AE52A0230E0
:1005A0008A002508073982070134023404340834EC
:1005B0001034203440348034901DE02A0030E82A82
:1005C0000F1FEA2A0F130230E82A0330E82A02300C
:1005D0009F000923692397289F13AD01AE011F19BE
:1005E000F42ADF30AB00002B8E1BFB2A0330AC005B
:1005F0008230AB00002B0230AC00A130AB00002BEE
:100600005C239016861106110800061586159012B7
:1006100008001F1E172B2B082C041C040319172B72
:100620001F1908009F1808000615AB01AC01033024
:100630009C00952308001F1E2F2B1F19382B8E1C82
:10064000232B8E1F2D2B0E1C382B1F129F1C2D2B86
:100650001F18080001309F002F2B00309F00E1235E
:10066000A7006323A80007309E009013101708000E
:100670005C231F1D4F2B2D082E0403194D2BAD0895
:100680000319AE032D03AB002E08AC00AD01AE0183
:100690002B082C0403194D2B5A2B86100800AC0193
:1006A0001F080339383E89006323AB00031D5A2B12
:1006B0008610080006110800061286121F1806167A
:1006C0009F188616080089008316081483120808EC
:1006D00008000430A100A201A301A401A5010800A3
:1006E000901C08000E188A2B8E187F2B0F1E8A2B49
:1006F000103010188B2B8E1B8A2B11308B2B2B0854
:100700002C041C04031D8A2B8E1F8A2B0F1E8A2B80
:1007100010308B2B00309F00092318089B0010100D
:100720001508013C031D9010080086149B0803194E
:100730009C2B901808009D2B1014901418089B00F7
:100740000800151808002B082C04031D08009C083D
:10075000031D0800101B08008610080064008316A3
:100760008B13081555308900AA30890088140811A8
:1007700000008818B82B8B178312080009081A3C50
:10078000031C003403308A0009088207003408344F
:1007900032341E34363400340F340D34FF34053413
:1007A0000B34FF3403340F34FF3409340234003483
:1007B000053410340A34153429343834FF34FF3406
:1007C000FF3403308A001F08033982070F340C34CA
:1007D0000634093403308A00200882070D340134BE
:1007E000023403340434053406340734083409343D
:0C07F00000340E340F340A340B340C3487
:02400E000D00A3
:00000001FF
