:020000040000FA
:040000008A01002A47
:08000800F200030E8301A000C9
:100010000A08A1008A0183170408A2000B191528F9
:100020008C1A1A280C1A1E2829280730810023143C
:100030000B1129281A08B000A317292832202D08EF
:10004000031924289900292883160C128312F5011C
:10005000851221088A0022088400200E8300F20EF7
:10006000720E090000308A007408073982073F28A1
:10007000402846284C28522858285E286D280034ED
:100080008A150A1600208A110A127D288A150A1676
:100090001A208A110A127D288A150A16C4208A118C
:1000A0000A127D288A150A16DB208A110A127D2879
:1000B0008A150A1600218A110A127D287508F00097
:1000C0008A110A1685208A110A12AE073123AD0063
:1000D000F50F08000730F4000800751875282E0E7B
:1000E0000F393123AD00F50A08002E080F393123EE
:1000F000AD00F5010530F4000800AD00F50A080078
:10010000F400F5018B138B1B822883160C168312C7
:040110008B17080041
:10040000831600309F0007309F00C0308500003009
:100410008600BF3087008330810067309900243028
:10042000980020308C008312903098001F30850097
:100430008601031E85166400203084008001840A32
:10044000841F1E2A83170A30A400A500A600A3015A
:10045000E0308B008A110A1653208A110A120130EB
:10046000F4008020A31AA312231E3C2A2312A70BF8
:100470003C2A0A30A700A316A31D442AA311A60BE9
:10048000442A0A30A6002316231D4C2A2311A50B4B
:100490004C2A0A30A500A315A31C542AA310A40BB0
:1004A000542A0A30A4002315231C592A2310A3140C
:1004B0006400A31D652AAF080319652AAF0B652ADE
:1004C0000030B1000430F4008020231D892A071A6F
:1004D000762A281C722AB5080319782AB50B782ABF
:1004E0002815782A28140530B500782AB501281077
:1004F000871A872AA81C832AB4080319892AB40BEF
:10050000892AA815892AA8140530B400892AB401BB
:10051000A810281D932A85168A110A1621208A11EF
:100520000A1285122811A81D9E2A85168A110A16FC
:1005300000204C208A110A128512A811A31F322A0A
:10054000A31302308A00310803398207AA2A012B3B
:10055000112BAA2A3008443A0319D72A3008643AE2
:100560000319D72A3008523A0319DF2A3008723AA1
:100570000319DF2A3008553A0319EA2A3008753A78
:100580000319EA2A3008563A0319F22A3008763A53
:100590000319F22A3008573A0319F72A3008773A34
:1005A0000319F72A85160230F4008020322A8516B6
:1005B0003230AF00AE01F0010130B100322A8516B1
:1005C0008A110A1600204C208A110A120530F40004
:1005D0008020322A8516AE01F0010630F400F501C4
:1005E0008020322A85160130F4008020322A8516B8
:1005F0008A110A1621208A110A120530F40080207F
:10060000322A30083C23AE07F1008A110A169920DD
:100610008A110A12F00F322A0230B100B201B3017E
:10062000322A3218192B30083C23B300B30EB20A19
:10063000322A30083C23B3070030B1002E083302C1
:10064000031D2C2B8A110A164C208A110A12AF01A5
:100650000530F4008020322AAF010330F4008020FE
:10066000322A0F39AB00093C031C392B2B08303ED2
:1006700008002B08373E0800AB00AB1B4F2B2B1B91
:10068000482BAB1E4F2B2B1E4F2B0F302B0508007A
:10069000AB194F2B07302B05093E0F3908000034EA
:10200000F001860105148514051585158316BF306A
:1020100087008312DF200512DF206400700886002D
:102020000510DF2007080F39F10005149920F00F83
:102030000D2886010516DF20051085100511851174
:102040000800F00186010514851405158515DF20AB
:102050008316B030870083120512D5206400700803
:102060008600F03087058520870485100510DF2065
:1020700005148514F00F2E2886010511DF200515A3
:10208000D52005168316BF3087008312DF20051088
:102090008510051185110800F301B7206920F30AA6
:1020A000F31F4D280800F3015A20C520F30AF31F3F
:1020B000542808008B138B1B5A28730803178312AC
:1020C0008D0083168C130C1483120C0803138B17CA
:1020D0000800AB008B138B1B6A287308031783124D
:1020E0008D0003132B0803178C0083168C130C151B
:1020F00055308D00AA308D008C1464000C158C189E
:102100007F28831203138B17080083177008AA0017
:10211000AA0CAA132A132030AA07F01BAA172A0810
:1021200084000008701C9528000E0F39F1008313FD
:10213000080083177008AA00AA0CAA132A132030DB
:10214000AA07F01BAA172A0884007108AB00701CAC
:10215000B0280F308005710EF03980048313080019
:10216000F030800571080F3980048313080083174D
:102170007308AA00AA132A132030AA07731BAA17F0
:102180002A088400000883130800AB008317730833
:10219000AA00AA132A132030AA07731BAA172A0819
:1021A00084002B088000831308001430AC00E32067
:1021B000AC0BD728080064003230AB00E72864007D
:1021C0009630AB00E7286400FA30AB00E728000047
:0621D000AB0BE72808003C
:1030000018308A00750882070D340A340A344E34A9
:103010004834523443342D345034583450342034EE
:103020005634203430342E34303434340D340A34B1
:103030003E34003418308A00750882070D340A3493
:103040000A34563420342D342034533468346F34E9
:1030500077342034563465347234733469346F34C1
:103060006E3420344E3475346D34623465347234C9
:103070002E340D340A34443420342D342034443476
:103080006F3477346E346C346F346134643420348C
:10309000703472346F346734723461346D34203478
:1030A00054344F34203470346F3464342E340D343F
:1030B0000A34553420342D342034553470346C3473
:1030C0006F34613464342034703472346F34673454
:1030D000723461346D342034463452344F344D34BC
:1030E000203470346F3464342E340D340A34523446
:1030F00020342D3420345234453441344434203487
:10310000703472346F346734723461346D34203407
:1031100045344534503452344F344D3420344934DE
:103120004E3454344F34203450344F3444342E34DD
:103130000D340A34573420342D342034573452346B
:103140004934543445342034703472346F34673425
:10315000723461346D342034663472346F346D34BB
:10316000203470346F346434203454344F34203479
:1031700045344534503452344F344D342E340D34AC
:103180000A340A343E34003418308A007508820745
:103190000D340A340A344234613464342034433404
:1031A0006834653463346B34733475346D340D3482
:1031B0000A343E34003418308A00750882070D3412
:1031C0000A340A3444346F3477346E346C346F34D8
:1031D000613464342034543469346D346534643477
:1031E00020344F34753474340D340A343E34003492
:1032000019308A00750882070D340A340A344F34A5
:0A3210006B340D340A343E340034F0
:02400E00460D5D
:00000001FF
